:020000001729BE
:080008008C0003088D00B730E5
:1000100081000B11120803191C289203031D1528D7
:10002000150803191C28E4201C28940D930D0318AF
:100030001B2886131C2886170D0883000C0809004E
:1000400082070A340B3400340134023403340A3496
:100050000B340434053406340734083409340A34C4
:100060000B340C340D340F0882073D2847285128E3
:100070005B2865286F287928832810088207A12A21
:10008000B32AC82ADF2AF12A012B112B1E2B1008B4
:100090008207A32AB62ACB2AE22AF32A032B132BA0
:1000A000202B10088207A52AB82ACE2AE52AF52A8D
:1000B000052B152B222B10088207A72ABB2AD12A31
:1000C000E82AF72A072B172B242B10088207A92AC6
:1000D000BD2AD42AEB2AF92A092B192B262B100822
:1000E0008207AB2AC02AD62AED2AFB2A0B2B1B2B10
:1000F000282B10088207AD2AC32AD92AF02AFD2A04
:100100000D2B1D2B2A2B10088207B02AC52ADC2AAA
:10011000F02AFF2A0F2B1D2B2A2B10088207972865
:10012000A128AB28AB28B528BF28C028CA280F08AB
:1001300082077F3440347F3400347F34003400340D
:1001400000340F0882070034003440340034403457
:100150000034003440340F088207003400347F3408
:100160007F347F340034403440340F0882077F34BA
:1001700040347F34003400340034003400344034E0
:100180000F088207403440344034403401347F3417
:10019000003400340F088207423440344034403485
:1001A00040344034003400341008820710341834CE
:1001B00020342834103418342034283400340834DF
:1001C0001034183420342834930194010314930C10
:1001D000960D930C960D930C960D930C960D930C17
:1001E000960D930C960D930C960D930C960D930C07
:1001F000940C0310930C940C1708960018089700A1
:10020000190898001A0899001B089A001C089B00FE
:100210001D089C001E089D0095030B3092000800ED
:10022000E4208B179208031D12298B130800FF305E
:100230008600850083166F308600033085008112AA
:100240008B1683120E30840042308C008001840AA9
:100250008C0B2629B7308100061231210616312178
:100260002C29F12330223508B600B706B70C031845
:100270003B29B60C3E29B60C03185121B70C0318C4
:100280004329B60C4629B60C03185321B70C0318A2
:100290004B29B60C4E29B60C031855213508B7006A
:1002A000080000305629063056290C3091002020D5
:1002B00090003508B700F123F123F12330223508EF
:1002C000B600B706B70C03186729B60C6A29B60C36
:1002D00003187B22B70C03186F29B60C7229B60CD1
:1002E00003188422B70C03187729B60C7A29B60CA8
:1002F00003188622B70C03187F29B60C8229B60C86
:1003000003188822B70C03188729B60C8A29B60C63
:1003100003188A22B70C03188F29B60C9229B60C41
:1003200003188C22B70C03189729B60C9A29B60C1F
:1003300003188E22B70C03189F29B60CA229B60CFD
:1003400003188F223508B7008F018E300322210851
:100350002B020319AF292108AB00A300FD218F0A4E
:10036000CE30032221082C020319BA292108AC003F
:10037000A400FD218F0A9E30032221082D020319BB
:10038000C5292108AD00A500FD218F0ADE3003221A
:1003900021082E020319D0292108AE00A600FD2154
:1003A0008F0AAE30032221082F020319DB2921080E
:1003B000AF00A700FD218F0AEE3003222108300292
:1003C0000319E6292108B000A800FD218F0ABE30DC
:1003D0000322210831020319F1292108B100A900E3
:1003E000FD218F0AFE300322210832020319FC2965
:1003F0002108B200AA00FD215E29B300B401E72361
:10040000901D3328982A9F0005120000851108309E
:10041000A20005129F0D03180F2A0511102A0515B9
:1004200000000516A203031D092A05110000851C02
:10043000172A1030A2000516000000000000051267
:1004400000000518252A0310262A0314A00DA10D6B
:100450000516A203031D1F2A0512000085150800BA
:10046000B5018316061705158612831206130511AA
:100470008616000000000000000006088D008D0CAC
:10048000B50D8D0CB50D8D0CB50D8D0CB50D831600
:10049000061705118616831206130515861200002D
:1004A00000000000000006088D008D0CB50D8D0CBD
:1004B000B50D8D0CB50D8D0CB50D8E018316061383
:1004C0000515861683120617051186120000000016
:1004D0000000000006088D008E018D0C8E0D8D0C25
:1004E0008E0D8D0C8E0D8D0C8E0D8316061705113D
:1004F0008616831208000030110720209000FC3976
:10050000031990221008A92B01307C2A02307C2A82
:1005100003307C2A04307C2A05307C2A902BCF2B98
:10052000033095006A23633097007F3098001029CC
:10053000100807398C0003108C0D8C0D0C0D0F0763
:100540002B2B07302B2B0A302B2B0B302B2B013076
:100550002B2B1530412B1630412B6E231930412B9C
:100560006E231A30412B72230030412B0130412B76
:1005700083231130412B1430412B7E231730412B24
:1005800072230230412B0330412B83231230412B45
:1005900072230430412B72230530412B7223063025
:1005A000412B72230730412B0830412B7223093035
:1005B000412B83231330412B83231830412B72238B
:1005C0000A30412B72230B30412B72230C30412B0C
:1005D00072230D30412B0E30412B72230F30412BF3
:1005E000080007302B2B0A302B2B0B302B2B013024
:1005F0002B2B2030412B2130412B5B302B2B5D30BE
:100600002B2B49302B2B1B30562B48302B2B1730E4
:10061000562B1530562B1630562B4A302B2B473085
:100620002B2B6930562B6A30562B6B30562B6C3087
:10063000562B6D30562B6E30562B08002330562B20
:100640002430562B2530562B2630562B2730562B50
:100650002830562B08009700033095006A23330892
:1006600098001029063095006A234130970033081E
:100670009B00031D7F3098001608990005309A00F2
:1006800010299800073095006A23623097002630C1
:1006900099002030B40733087F399A0006309B0058
:1006A0000310330D340D7F399C0010299C00093054
:1006B0009500F030960043309700103098004C3091
:1006C000990008309A000E089B0033089D00F7300F
:1006D0009E0010290E08B03E960008000310B30DCE
:1006E000B40D08000310B30DB40DB30DB40DB30D6C
:1006F000B40DB30DB40DB30DB40D08004030B3020A
:10070000031CB40308000310B30DB40D8030B30212
:10071000031CB4030800D42089002330840008009F
:100720008B2308308D0006129A238D03031D932B13
:100730000616080000088800831608155530890041
:10074000AA30890088148818A32B8312890A840A86
:1007500008008B2308308D00B1238D03031DAC2BC3
:10076000BA2B83160814831208087F398000890A7F
:10077000840A0800FF308F002308CB232408CB23F2
:100780002508CB232608CB232708CB232808CB23F7
:100790002908CB232A08B300B4018F0A002AFF30AE
:1007A0008F00E223A300E223A400E223A500E223BA
:1007B000A600E223A700E223A800E223A900E22387
:1007C000AA00BA2B8F0A0030901D8D280800003037
:1007D000901D8D2033020319EF2B06160800061218
:1007E000080001308C008D018F018F0BF52B8D0BD4
:0807F000F52B8C0BF52B080022
:00000001FF
