:060000008A150A12B12866
:1010000083162030980009309900831290309800A0
:10101000080099008316981C0B28831208002508E5
:1010200009202608092027080920080085018316C1
:10103000FF3085009F01831208002908B8000030A6
:1010400055203908A90008003008B800083055209C
:101050003908B00008003108B800103055203908B0
:10106000B10008003208B800183055203908B20025
:1010700008003308B800203055203908B3000800B4
:101080003408B800283055203908B4000800350865
:10109000B800303055203908B50008003608B800CF
:1010A000383055203908B6000800B7007420C00059
:1010B00038060319712874204006031D7128742016
:1010C0004006031D712874204006031D7128400846
:1010D000B9000130B03EA5003708A6003908A700C6
:1010E0000F283808B90008003708813E9F004030BB
:1010F000A800A80B79281F151F197C281E0C7F3902
:1011000008008316871208008312871208008312D2
:101110008716080006080139C200C106031D93287E
:101120004208C10008004208C100FF39A700013091
:10113000B03EA5000130A6000F2008000808FF39C6
:10114000C400C306031DA7284408C30008004408C0
:10115000C300A7000130B03EA5000330A6000F2059
:10116000080081208420162000208601831601308B
:101170008600831288018316FF30880083121D20A9
:1011800024202B2032203920402047204E208A2046
:041190009E20BF28B6
:00000001FF
